:100000000C942A000C9434000C9434000C943400AA
:100010000C9434000C9434000C9434000C94340090
:100020000C9434000C9434000C9434000C94340080
:100030000C9434000C9434000C9434000C94340070
:100040000C9434000C9434000C9434000C94340060
:100050000C94340011241FBECFE5D8E0DEBFCDBF25
:100060000E9436000C9450000C94000081E08ABB82
:1000700020E030E061E048EC50E06BBB84EC99E0BC
:10008000FA013197F1F70197D9F78BB3880F8BBB42
:100090002F5F3F4F2430310584F320E030E0EDCF77
:0400A000F894FFCF02
:00000001FF
